{
  "contractName": "DACO",
  "abi": [
    {
      "anonymous": false,
      "inputs": [
        {
          "indexed": false,
          "internalType": "uint256",
          "name": "projectId",
          "type": "uint256"
        },
        {
          "indexed": false,
          "internalType": "address",
          "name": "donor",
          "type": "address"
        },
        {
          "indexed": false,
          "internalType": "uint256",
          "name": "amount",
          "type": "uint256"
        }
      ],
      "name": "DonationReceived",
      "type": "event"
    },
    {
      "anonymous": false,
      "inputs": [
        {
          "indexed": false,
          "internalType": "uint256",
          "name": "projectId",
          "type": "uint256"
        },
        {
          "indexed": false,
          "internalType": "address",
          "name": "spendingCause",
          "type": "address"
        },
        {
          "indexed": false,
          "internalType": "uint256",
          "name": "amount",
          "type": "uint256"
        }
      ],
      "name": "FundsSpent",
      "type": "event"
    },
    {
      "anonymous": false,
      "inputs": [
        {
          "indexed": false,
          "internalType": "uint256",
          "name": "projectId",
          "type": "uint256"
        },
        {
          "indexed": false,
          "internalType": "string",
          "name": "name",
          "type": "string"
        },
        {
          "indexed": false,
          "internalType": "string",
          "name": "description",
          "type": "string"
        },
        {
          "indexed": false,
          "internalType": "uint256",
          "name": "goal",
          "type": "uint256"
        },
        {
          "indexed": false,
          "internalType": "uint256",
          "name": "deadline",
          "type": "uint256"
        },
        {
          "indexed": false,
          "internalType": "address",
          "name": "spendingCause",
          "type": "address"
        },
        {
          "indexed": false,
          "internalType": "address",
          "name": "owner",
          "type": "address"
        }
      ],
      "name": "ProjectCreated",
      "type": "event"
    },
    {
      "anonymous": false,
      "inputs": [
        {
          "indexed": false,
          "internalType": "uint256",
          "name": "projectId",
          "type": "uint256"
        },
        {
          "indexed": false,
          "internalType": "uint256",
          "name": "totalApprovedAmount",
          "type": "uint256"
        }
      ],
      "name": "SpendingApproved",
      "type": "event"
    },
    {
      "anonymous": false,
      "inputs": [
        {
          "indexed": false,
          "internalType": "uint256",
          "name": "projectId",
          "type": "uint256"
        },
        {
          "indexed": false,
          "internalType": "address",
          "name": "spendingCause",
          "type": "address"
        }
      ],
      "name": "SpendingCauseSet",
      "type": "event"
    },
    {
      "inputs": [
        {
          "internalType": "uint256",
          "name": "",
          "type": "uint256"
        },
        {
          "internalType": "address",
          "name": "",
          "type": "address"
        }
      ],
      "name": "lastApprovalVersion",
      "outputs": [
        {
          "internalType": "uint256",
          "name": "",
          "type": "uint256"
        }
      ],
      "stateMutability": "view",
      "type": "function",
      "constant": true
    },
    {
      "inputs": [],
      "name": "projectCount",
      "outputs": [
        {
          "internalType": "uint256",
          "name": "",
          "type": "uint256"
        }
      ],
      "stateMutability": "view",
      "type": "function",
      "constant": true
    },
    {
      "inputs": [
        {
          "internalType": "uint256",
          "name": "",
          "type": "uint256"
        }
      ],
      "name": "projects",
      "outputs": [
        {
          "internalType": "string",
          "name": "name",
          "type": "string"
        },
        {
          "internalType": "string",
          "name": "description",
          "type": "string"
        },
        {
          "internalType": "uint256",
          "name": "goal",
          "type": "uint256"
        },
        {
          "internalType": "uint256",
          "name": "fundsRaised",
          "type": "uint256"
        },
        {
          "internalType": "bool",
          "name": "active",
          "type": "bool"
        },
        {
          "internalType": "address",
          "name": "owner",
          "type": "address"
        },
        {
          "internalType": "address payable",
          "name": "spendingCause",
          "type": "address"
        },
        {
          "internalType": "uint256",
          "name": "totalApprovedAmount",
          "type": "uint256"
        },
        {
          "internalType": "uint256",
          "name": "approvalVersion",
          "type": "uint256"
        },
        {
          "internalType": "uint256",
          "name": "deadline",
          "type": "uint256"
        }
      ],
      "stateMutability": "view",
      "type": "function",
      "constant": true
    },
    {
      "inputs": [
        {
          "internalType": "uint256",
          "name": "_projectId",
          "type": "uint256"
        },
        {
          "internalType": "address",
          "name": "_donor",
          "type": "address"
        }
      ],
      "name": "getDonorAmount",
      "outputs": [
        {
          "internalType": "uint256",
          "name": "",
          "type": "uint256"
        }
      ],
      "stateMutability": "view",
      "type": "function",
      "constant": true
    },
    {
      "inputs": [
        {
          "internalType": "uint256",
          "name": "_projectId",
          "type": "uint256"
        }
      ],
      "name": "getDonors",
      "outputs": [
        {
          "internalType": "address[]",
          "name": "",
          "type": "address[]"
        }
      ],
      "stateMutability": "view",
      "type": "function",
      "constant": true
    },
    {
      "inputs": [
        {
          "internalType": "string",
          "name": "_name",
          "type": "string"
        },
        {
          "internalType": "string",
          "name": "_description",
          "type": "string"
        },
        {
          "internalType": "uint256",
          "name": "_goal",
          "type": "uint256"
        },
        {
          "internalType": "uint256",
          "name": "_deadline",
          "type": "uint256"
        },
        {
          "internalType": "address payable",
          "name": "_spendingCause",
          "type": "address"
        }
      ],
      "name": "createProject",
      "outputs": [],
      "stateMutability": "nonpayable",
      "type": "function"
    },
    {
      "inputs": [
        {
          "internalType": "string",
          "name": "_name",
          "type": "string"
        },
        {
          "internalType": "string",
          "name": "_description",
          "type": "string"
        },
        {
          "internalType": "uint256",
          "name": "_goal",
          "type": "uint256"
        },
        {
          "internalType": "uint256",
          "name": "_deadline",
          "type": "uint256"
        }
      ],
      "name": "createProject",
      "outputs": [],
      "stateMutability": "nonpayable",
      "type": "function"
    },
    {
      "inputs": [
        {
          "internalType": "uint256",
          "name": "_projectId",
          "type": "uint256"
        }
      ],
      "name": "donate",
      "outputs": [],
      "stateMutability": "payable",
      "type": "function",
      "payable": true
    },
    {
      "inputs": [
        {
          "internalType": "uint256",
          "name": "_projectId",
          "type": "uint256"
        },
        {
          "internalType": "address payable",
          "name": "_spendingCause",
          "type": "address"
        }
      ],
      "name": "setSpendingCause",
      "outputs": [],
      "stateMutability": "nonpayable",
      "type": "function"
    },
    {
      "inputs": [
        {
          "internalType": "uint256",
          "name": "_projectId",
          "type": "uint256"
        }
      ],
      "name": "approveSpending",
      "outputs": [],
      "stateMutability": "nonpayable",
      "type": "function"
    },
    {
      "inputs": [
        {
          "internalType": "uint256",
          "name": "_projectId",
          "type": "uint256"
        }
      ],
      "name": "spendDonations",
      "outputs": [],
      "stateMutability": "nonpayable",
      "type": "function"
    },
    {
      "inputs": [
        {
          "internalType": "uint256",
          "name": "_projectId",
          "type": "uint256"
        }
      ],
      "name": "checkAndRefundIfDeadlinePassed",
      "outputs": [],
      "stateMutability": "nonpayable",
      "type": "function"
    }
  ],
  "bytecode": "0x608060405234801561001057600080fd5b5061281e806100206000396000f3fe6080604052600436106100a75760003560e01c80636685d496116100645780636685d496146101fd57806394ba97091461022657806395f8c33d1461024f578063cdcd0ba614610278578063f14faf6f146102a1578063f95bf411146102bd576100a7565b8063107046bd146100ac5780631429920f146100f2578063295165111461012f57806336fbad261461016c5780634846c4af1461019757806365d780fe146101c0575b600080fd5b3480156100b857600080fd5b506100d360048036038101906100ce91906115f6565b6102e6565b6040516100e99a9998979695949392919061173f565b60405180910390f35b3480156100fe57600080fd5b5061011960048036038101906101149190611815565b610497565b6040516101269190611855565b60405180910390f35b34801561013b57600080fd5b50610156600480360381019061015191906115f6565b6104bc565b604051610163919061192e565b60405180910390f35b34801561017857600080fd5b5061018161055f565b60405161018e9190611855565b60405180910390f35b3480156101a357600080fd5b506101be60048036038101906101b991906115f6565b610565565b005b3480156101cc57600080fd5b506101e760048036038101906101e29190611815565b610595565b6040516101f49190611855565b60405180910390f35b34801561020957600080fd5b50610224600480360381019061021f9190611ab1565b6105f2565b005b34801561023257600080fd5b5061024d60048036038101906102489190611b64565b610772565b005b34801561025b57600080fd5b50610276600480360381019061027191906115f6565b610786565b005b34801561028457600080fd5b5061029f600480360381019061029a91906115f6565b610abd565b005b6102bb60048036038101906102b691906115f6565b610e67565b005b3480156102c957600080fd5b506102e460048036038101906102df9190611c03565b611188565b005b600060205280600052604060002060009150905080600001805461030990611c72565b80601f016020809104026020016040519081016040528092919081815260200182805461033590611c72565b80156103825780601f1061035757610100808354040283529160200191610382565b820191906000526020600020905b81548152906001019060200180831161036557829003601f168201915b50505050509080600101805461039790611c72565b80601f01602080910402602001604051908101604052809291908181526020018280546103c390611c72565b80156104105780601f106103e557610100808354040283529160200191610410565b820191906000526020600020905b8154815290600101906020018083116103f357829003601f168201915b5050505050908060020154908060030154908060040160009054906101000a900460ff16908060040160019054906101000a900473ffffffffffffffffffffffffffffffffffffffff16908060070160009054906101000a900473ffffffffffffffffffffffffffffffffffffffff169080600801549080600901549080600a015490508a565b6002602052816000526040600020602052806000526040600020600091509150505481565b606060008083815260200190815260200160002060050180548060200260200160405190810160405280929190818152602001828054801561055357602002820191906000526020600020905b8160009054906101000a900473ffffffffffffffffffffffffffffffffffffffff1673ffffffffffffffffffffffffffffffffffffffff1681526020019060010190808311610509575b50505050509050919050565b60015481565b6000806000838152602001908152602001600020905080600a0154421115610591576105908261147a565b5b5050565b600080600084815260200190815260200160002060060160008373ffffffffffffffffffffffffffffffffffffffff1673ffffffffffffffffffffffffffffffffffffffff16815260200190815260200160002054905092915050565b6000806000600154815260200190815260200160002090508581600001908161061b9190611e4f565b508481600101908161062d9190611e4f565b508381600201819055506000816003018190555060018160040160006101000a81548160ff021916908315150217905550338160040160016101000a81548173ffffffffffffffffffffffffffffffffffffffff021916908373ffffffffffffffffffffffffffffffffffffffff160217905550818160070160006101000a81548173ffffffffffffffffffffffffffffffffffffffff021916908373ffffffffffffffffffffffffffffffffffffffff1602179055506001816009018190555082426106fa9190611f50565b81600a01819055506001600081548092919061071590611f84565b91905055507fe6d4822758202dcabd966e9d0fa2dc68e31fde0c1bb8d9e1b393c498a008362c600180546107499190611fcc565b8787878787336040516107629796959493929190612055565b60405180910390a1505050505050565b6107808484848460006105f2565b50505050565b80600080600083815260200190815260200160002090508060040160009054906101000a900460ff166107ee576040517f08c379a00000000000000000000000000000000000000000000000000000000081526004016107e59061211e565b60405180910390fd5b80600a015442106108515760008160040160006101000a81548160ff0219169083151502179055506040517f08c379a0000000000000000000000000000000000000000000000000000000008152600401610848906121b0565b60405180910390fd5b6000806000858152602001908152602001600020905060015484106108ab576040517f08c379a00000000000000000000000000000000000000000000000000000000081526004016108a29061221c565b60405180910390fd5b60008160060160003373ffffffffffffffffffffffffffffffffffffffff1673ffffffffffffffffffffffffffffffffffffffff168152602001908152602001600020541161092f576040517f08c379a000000000000000000000000000000000000000000000000000000000815260040161092690612288565b60405180910390fd5b80600901546002600086815260200190815260200160002060003373ffffffffffffffffffffffffffffffffffffffff1673ffffffffffffffffffffffffffffffffffffffff16815260200190815260200160002054036109c5576040517f08c379a00000000000000000000000000000000000000000000000000000000081526004016109bc906122f4565b60405180910390fd5b80600901546002600086815260200190815260200160002060003373ffffffffffffffffffffffffffffffffffffffff1673ffffffffffffffffffffffffffffffffffffffff168152602001908152602001600020819055508060060160003373ffffffffffffffffffffffffffffffffffffffff1673ffffffffffffffffffffffffffffffffffffffff16815260200190815260200160002054816008016000828254610a739190611f50565b925050819055507fa3b0192cf96c821427ba00a9697332fa753a8cff1f8b97f1e3691f3275f1a93a848260080154604051610aaf929190612314565b60405180910390a150505050565b80600080600083815260200190815260200160002090508060040160009054906101000a900460ff16610b25576040517f08c379a0000000000000000000000000000000000000000000000000000000008152600401610b1c9061211e565b60405180910390fd5b80600a01544210610b885760008160040160006101000a81548160ff0219169083151502179055506040517f08c379a0000000000000000000000000000000000000000000000000000000008152600401610b7f906121b0565b60405180910390fd5b600080600085815260200190815260200160002090506001548410610be2576040517f08c379a0000000000000000000000000000000000000000000000000000000008152600401610bd99061221c565b60405180910390fd5b600073ffffffffffffffffffffffffffffffffffffffff168160070160009054906101000a900473ffffffffffffffffffffffffffffffffffffffff1673ffffffffffffffffffffffffffffffffffffffff1603610c75576040517f08c379a0000000000000000000000000000000000000000000000000000000008152600401610c6c90612389565b60405180910390fd5b3373ffffffffffffffffffffffffffffffffffffffff168160040160019054906101000a900473ffffffffffffffffffffffffffffffffffffffff1673ffffffffffffffffffffffffffffffffffffffff1614610d07576040517f08c379a0000000000000000000000000000000000000000000000000000000008152600401610cfe9061241b565b60405180910390fd5b806002015481600801546002610d1d919061243b565b1015610d5e576040517f08c379a0000000000000000000000000000000000000000000000000000000008152600401610d55906124c9565b60405180910390fd5b8060070160009054906101000a900473ffffffffffffffffffffffffffffffffffffffff1673ffffffffffffffffffffffffffffffffffffffff166108fc82600301549081150290604051600060405180830381858888f19350505050158015610dcc573d6000803e3d6000fd5b507f50eb713538bbee8c18fe7c0df5b4c401fcaef03ea1b98570b7cb4736ec96e109848260070160009054906101000a900473ffffffffffffffffffffffffffffffffffffffff168360030154604051610e28939291906124e9565b60405180910390a1600081600301819055506000816008018190555060008160040160006101000a81548160ff02191690831515021790555050505050565b80600080600083815260200190815260200160002090508060040160009054906101000a900460ff16610ecf576040517f08c379a0000000000000000000000000000000000000000000000000000000008152600401610ec69061211e565b60405180910390fd5b80600a01544210610f325760008160040160006101000a81548160ff0219169083151502179055506040517f08c379a0000000000000000000000000000000000000000000000000000000008152600401610f29906121b0565b60405180910390fd5b600080600085815260200190815260200160002090506001548410610f8c576040517f08c379a0000000000000000000000000000000000000000000000000000000008152600401610f839061221c565b60405180910390fd5b8060020154348260030154610fa19190611f50565b1115610fe2576040517f08c379a0000000000000000000000000000000000000000000000000000000008152600401610fd99061256c565b60405180910390fd5b60003411611025576040517f08c379a000000000000000000000000000000000000000000000000000000000815260040161101c906125fe565b60405180910390fd5b348160030160008282546110399190611f50565b9250508190555060008160060160003373ffffffffffffffffffffffffffffffffffffffff1673ffffffffffffffffffffffffffffffffffffffff16815260200190815260200160002054036110ef5780600501339080600181540180825580915050600190039060005260206000200160009091909190916101000a81548173ffffffffffffffffffffffffffffffffffffffff021916908373ffffffffffffffffffffffffffffffffffffffff1602179055505b348160060160003373ffffffffffffffffffffffffffffffffffffffff1673ffffffffffffffffffffffffffffffffffffffff16815260200190815260200160002060008282546111409190611f50565b925050819055507f0b5b4c52969ff7329ecf7ee536409fda87812b15a8622bc6e8cdeab3aee14a2684333460405161117a9392919061261e565b60405180910390a150505050565b81600080600083815260200190815260200160002090508060040160009054906101000a900460ff166111f0576040517f08c379a00000000000000000000000000000000000000000000000000000000081526004016111e79061211e565b60405180910390fd5b80600a015442106112535760008160040160006101000a81548160ff0219169083151502179055506040517f08c379a000000000000000000000000000000000000000000000000000000000815260040161124a906121b0565b60405180910390fd5b6000806000868152602001908152602001600020905060015485106112ad576040517f08c379a00000000000000000000000000000000000000000000000000000000081526004016112a49061221c565b60405180910390fd5b8060040160019054906101000a900473ffffffffffffffffffffffffffffffffffffffff1673ffffffffffffffffffffffffffffffffffffffff163373ffffffffffffffffffffffffffffffffffffffff161461133f576040517f08c379a0000000000000000000000000000000000000000000000000000000008152600401611336906126a1565b60405180910390fd5b8060070160009054906101000a900473ffffffffffffffffffffffffffffffffffffffff1673ffffffffffffffffffffffffffffffffffffffff168473ffffffffffffffffffffffffffffffffffffffff16036113d1576040517f08c379a00000000000000000000000000000000000000000000000000000000081526004016113c890612733565b60405180910390fd5b60018160090160008282546113e69190611f50565b9250508190555060008160080181905550838160070160006101000a81548173ffffffffffffffffffffffffffffffffffffffff021916908373ffffffffffffffffffffffffffffffffffffffff1602179055507f4a7211a4071ebbc8040d4af763a07e83da81f25412b83ed443cf5b16915f7447858560405161146b929190612753565b60405180910390a15050505050565b6000806000838152602001908152602001600020905060008160060160003373ffffffffffffffffffffffffffffffffffffffff1673ffffffffffffffffffffffffffffffffffffffff16815260200190815260200160002054905060008111611519576040517f08c379a0000000000000000000000000000000000000000000000000000000008152600401611510906127c8565b60405180910390fd5b3373ffffffffffffffffffffffffffffffffffffffff166108fc829081150290604051600060405180830381858888f1935050505015801561155f573d6000803e3d6000fd5b5060008260060160003373ffffffffffffffffffffffffffffffffffffffff1673ffffffffffffffffffffffffffffffffffffffff16815260200190815260200160002081905550505050565b6000604051905090565b600080fd5b600080fd5b6000819050919050565b6115d3816115c0565b81146115de57600080fd5b50565b6000813590506115f0816115ca565b92915050565b60006020828403121561160c5761160b6115b6565b5b600061161a848285016115e1565b91505092915050565b600081519050919050565b600082825260208201905092915050565b60005b8381101561165d578082015181840152602081019050611642565b60008484015250505050565b6000601f19601f8301169050919050565b600061168582611623565b61168f818561162e565b935061169f81856020860161163f565b6116a881611669565b840191505092915050565b6116bc816115c0565b82525050565b60008115159050919050565b6116d7816116c2565b82525050565b600073ffffffffffffffffffffffffffffffffffffffff82169050919050565b6000611708826116dd565b9050919050565b611718816116fd565b82525050565b6000611729826116dd565b9050919050565b6117398161171e565b82525050565b600061014082019050818103600083015261175a818d61167a565b9050818103602083015261176e818c61167a565b905061177d604083018b6116b3565b61178a606083018a6116b3565b61179760808301896116ce565b6117a460a083018861170f565b6117b160c0830187611730565b6117be60e08301866116b3565b6117cc6101008301856116b3565b6117da6101208301846116b3565b9b9a5050505050505050505050565b6117f2816116fd565b81146117fd57600080fd5b50565b60008135905061180f816117e9565b92915050565b6000806040838503121561182c5761182b6115b6565b5b600061183a858286016115e1565b925050602061184b85828601611800565b9150509250929050565b600060208201905061186a60008301846116b3565b92915050565b600081519050919050565b600082825260208201905092915050565b6000819050602082019050919050565b6118a5816116fd565b82525050565b60006118b7838361189c565b60208301905092915050565b6000602082019050919050565b60006118db82611870565b6118e5818561187b565b93506118f08361188c565b8060005b8381101561192157815161190888826118ab565b9750611913836118c3565b9250506001810190506118f4565b5085935050505092915050565b6000602082019050818103600083015261194881846118d0565b905092915050565b600080fd5b600080fd5b7f4e487b7100000000000000000000000000000000000000000000000000000000600052604160045260246000fd5b61199282611669565b810181811067ffffffffffffffff821117156119b1576119b061195a565b5b80604052505050565b60006119c46115ac565b90506119d08282611989565b919050565b600067ffffffffffffffff8211156119f0576119ef61195a565b5b6119f982611669565b9050602081019050919050565b82818337600083830152505050565b6000611a28611a23846119d5565b6119ba565b905082815260208101848484011115611a4457611a43611955565b5b611a4f848285611a06565b509392505050565b600082601f830112611a6c57611a6b611950565b5b8135611a7c848260208601611a15565b91505092915050565b611a8e8161171e565b8114611a9957600080fd5b50565b600081359050611aab81611a85565b92915050565b600080600080600060a08688031215611acd57611acc6115b6565b5b600086013567ffffffffffffffff811115611aeb57611aea6115bb565b5b611af788828901611a57565b955050602086013567ffffffffffffffff811115611b1857611b176115bb565b5b611b2488828901611a57565b9450506040611b35888289016115e1565b9350506060611b46888289016115e1565b9250506080611b5788828901611a9c565b9150509295509295909350565b60008060008060808587031215611b7e57611b7d6115b6565b5b600085013567ffffffffffffffff811115611b9c57611b9b6115bb565b5b611ba887828801611a57565b945050602085013567ffffffffffffffff811115611bc957611bc86115bb565b5b611bd587828801611a57565b9350506040611be6878288016115e1565b9250506060611bf7878288016115e1565b91505092959194509250565b60008060408385031215611c1a57611c196115b6565b5b6000611c28858286016115e1565b9250506020611c3985828601611a9c565b9150509250929050565b7f4e487b7100000000000000000000000000000000000000000000000000000000600052602260045260246000fd5b60006002820490506001821680611c8a57607f821691505b602082108103611c9d57611c9c611c43565b5b50919050565b60008190508160005260206000209050919050565b60006020601f8301049050919050565b600082821b905092915050565b600060088302611d057fffffffffffffffffffffffffffffffffffffffffffffffffffffffffffffffff82611cc8565b611d0f8683611cc8565b95508019841693508086168417925050509392505050565b6000819050919050565b6000611d4c611d47611d42846115c0565b611d27565b6115c0565b9050919050565b6000819050919050565b611d6683611d31565b611d7a611d7282611d53565b848454611cd5565b825550505050565b600090565b611d8f611d82565b611d9a818484611d5d565b505050565b5b81811015611dbe57611db3600082611d87565b600181019050611da0565b5050565b601f821115611e0357611dd481611ca3565b611ddd84611cb8565b81016020851015611dec578190505b611e00611df885611cb8565b830182611d9f565b50505b505050565b600082821c905092915050565b6000611e2660001984600802611e08565b1980831691505092915050565b6000611e3f8383611e15565b9150826002028217905092915050565b611e5882611623565b67ffffffffffffffff811115611e7157611e7061195a565b5b611e7b8254611c72565b611e86828285611dc2565b600060209050601f831160018114611eb95760008415611ea7578287015190505b611eb18582611e33565b865550611f19565b601f198416611ec786611ca3565b60005b82811015611eef57848901518255600182019150602085019450602081019050611eca565b86831015611f0c5784890151611f08601f891682611e15565b8355505b6001600288020188555050505b505050505050565b7f4e487b7100000000000000000000000000000000000000000000000000000000600052601160045260246000fd5b6000611f5b826115c0565b9150611f66836115c0565b9250828201905080821115611f7e57611f7d611f21565b5b92915050565b6000611f8f826115c0565b91507fffffffffffffffffffffffffffffffffffffffffffffffffffffffffffffffff8203611fc157611fc0611f21565b5b600182019050919050565b6000611fd7826115c0565b9150611fe2836115c0565b9250828203905081811115611ffa57611ff9611f21565b5b92915050565b600061201b612016612011846116dd565b611d27565b6116dd565b9050919050565b600061202d82612000565b9050919050565b600061203f82612022565b9050919050565b61204f81612034565b82525050565b600060e08201905061206a600083018a6116b3565b818103602083015261207c818961167a565b90508181036040830152612090818861167a565b905061209f60608301876116b3565b6120ac60808301866116b3565b6120b960a0830185612046565b6120c660c083018461170f565b98975050505050505050565b7f50726f6a656374206973206e6f74206163746976650000000000000000000000600082015250565b600061210860158361162e565b9150612113826120d2565b602082019050919050565b60006020820190508181036000830152612137816120fb565b9050919050565b7f50726f6a656374206973206e6f206c6f6e67657220616374697665206475652060008201527f746f2070617373656420646561646c696e652e00000000000000000000000000602082015250565b600061219a60338361162e565b91506121a58261213e565b604082019050919050565b600060208201905081810360008301526121c98161218d565b9050919050565b7f496e76616c69642070726f6a6563742049440000000000000000000000000000600082015250565b600061220660128361162e565b9150612211826121d0565b602082019050919050565b60006020820190508181036000830152612235816121f9565b9050919050565b7f4e6f20646f6e6174696f6e206d61646500000000000000000000000000000000600082015250565b600061227260108361162e565b915061227d8261223c565b602082019050919050565b600060208201905081810360008301526122a181612265565b9050919050565b7f416c726561647920617070726f76656400000000000000000000000000000000600082015250565b60006122de60108361162e565b91506122e9826122a8565b602082019050919050565b6000602082019050818103600083015261230d816122d1565b9050919050565b600060408201905061232960008301856116b3565b61233660208301846116b3565b9392505050565b7f5370656e64696e672063617573652061646472657373206e6f74207365740000600082015250565b6000612373601e8361162e565b915061237e8261233d565b602082019050919050565b600060208201905081810360008301526123a281612366565b9050919050565b7f596f752063616e206e6f7420696e69746961746520746865207370656e64696e60008201527f6700000000000000000000000000000000000000000000000000000000000000602082015250565b600061240560218361162e565b9150612410826123a9565b604082019050919050565b60006020820190508181036000830152612434816123f8565b9050919050565b6000612446826115c0565b9150612451836115c0565b925082820261245f816115c0565b9150828204841483151761247657612475611f21565b5b5092915050565b7f496e73756666696369656e7420617070726f7665642066756e64730000000000600082015250565b60006124b3601b8361162e565b91506124be8261247d565b602082019050919050565b600060208201905081810360008301526124e2816124a6565b9050919050565b60006060820190506124fe60008301866116b3565b61250b6020830185612046565b61251860408301846116b3565b949350505050565b7f446f6e6174696f6e207461726765742065786365656465640000000000000000600082015250565b600061255660188361162e565b915061256182612520565b602082019050919050565b6000602082019050818103600083015261258581612549565b9050919050565b7f446f6e6174696f6e206d7573742062652067726561746572207468616e207a6560008201527f726f000000000000000000000000000000000000000000000000000000000000602082015250565b60006125e860228361162e565b91506125f38261258c565b604082019050919050565b60006020820190508181036000830152612617816125db565b9050919050565b600060608201905061263360008301866116b3565b612640602083018561170f565b61264d60408301846116b3565b949350505050565b7f596f7520617265206e6f74207065726d69747465640000000000000000000000600082015250565b600061268b60158361162e565b915061269682612655565b602082019050919050565b600060208201905081810360008301526126ba8161267e565b9050919050565b7f5370656e64696e6720636175736520616c72656164792073657420746f20746860008201527f6973206164647265737300000000000000000000000000000000000000000000602082015250565b600061271d602a8361162e565b9150612728826126c1565b604082019050919050565b6000602082019050818103600083015261274c81612710565b9050919050565b600060408201905061276860008301856116b3565b6127756020830184612046565b9392505050565b7f4e6f20646f6e6174696f6e7320746f20726566756e6400000000000000000000600082015250565b60006127b260168361162e565b91506127bd8261277c565b602082019050919050565b600060208201905081810360008301526127e1816127a5565b905091905056fea26469706673582212208d889ff46ddead5491245e8699cbbbd39d178c9e932efacf2af229f1dd5ca4f164736f6c63430008130033",
  "immutableReferences": {},
  "source": "// SPDX-License-Identifier: MIT\npragma solidity ^0.8.0;\n\ncontract DACO {\n    event ProjectCreated(\n        uint256 projectId,\n        string name,\n        string description,\n        uint256 goal,\n        uint256 deadline,\n        address spendingCause,\n        address owner\n    );\n    event DonationReceived(uint256 projectId, address donor, uint256 amount);\n    event SpendingCauseSet(uint256 projectId, address spendingCause);\n    event SpendingApproved(uint256 projectId, uint256 totalApprovedAmount);\n    event FundsSpent(uint256 projectId, address spendingCause, uint256 amount);\n\n    uint256 private constant MINIMUM_APPROVAL_RATIO = 2;\n\n    struct Project {\n        string name;\n        string description;\n        uint256 goal;\n        uint256 fundsRaised;\n        bool active;\n        address owner;\n        address[] donors;\n        mapping(address => uint256) donationAmount;\n        address payable spendingCause;\n        uint256 totalApprovedAmount;\n        uint256 approvalVersion;\n        uint256 deadline;\n    }\n\n    mapping(uint256 => Project) public projects;\n    uint256 public projectCount;\n    mapping(uint256 => mapping(address => uint256)) public lastApprovalVersion;\n\n    function getDonorAmount(\n        uint256 _projectId,\n        address _donor\n    ) public view returns (uint256) {\n        return projects[_projectId].donationAmount[_donor];\n    }\n\n    function getDonors(\n        uint256 _projectId\n    ) public view returns (address[] memory) {\n        return projects[_projectId].donors;\n    }\n\n    function createProject(\n        string memory _name,\n        string memory _description,\n        uint256 _goal,\n        uint256 _deadline\n    ) public {\n        createProject(\n            _name,\n            _description,\n            _goal,\n            _deadline,\n            payable(address(0))\n        );\n    }\n\n    function createProject(\n        string memory _name,\n        string memory _description,\n        uint256 _goal,\n        uint256 _deadline,\n        address payable _spendingCause\n    ) public {\n        Project storage project = projects[projectCount];\n        project.name = _name;\n        project.description = _description;\n        project.goal = _goal;\n        project.fundsRaised = 0;\n        project.active = true;\n        project.owner = msg.sender;\n        project.spendingCause = _spendingCause;\n        project.approvalVersion = 1;\n        project.deadline = block.timestamp + _deadline;\n\n        projectCount++;\n\n        emit ProjectCreated(\n            projectCount - 1,\n            _name,\n            _description,\n            _goal,\n            _deadline,\n            _spendingCause,\n            msg.sender\n        );\n    }\n\n    function donate(\n        uint256 _projectId\n    ) public payable deactivateAfterDeadline(_projectId) {\n        Project storage project = projects[_projectId];\n\n        require(_projectId < projectCount, \"Invalid project ID\");\n        require(\n            project.fundsRaised + msg.value <= project.goal,\n            \"Donation target exceeded\"\n        );\n        require(msg.value > 0, \"Donation must be greater than zero\");\n\n        project.fundsRaised += msg.value;\n\n        if (project.donationAmount[msg.sender] == 0) {\n            project.donors.push(msg.sender);\n        }\n        project.donationAmount[msg.sender] += msg.value;\n\n        emit DonationReceived(_projectId, msg.sender, msg.value);\n    }\n\n    function setSpendingCause(\n        uint256 _projectId,\n        address payable _spendingCause\n    ) public deactivateAfterDeadline(_projectId) {\n        Project storage project = projects[_projectId];\n\n        require(_projectId < projectCount, \"Invalid project ID\");\n        require(msg.sender == project.owner, \"You are not permitted\");\n        require(\n            _spendingCause != project.spendingCause,\n            \"Spending cause already set to this address\"\n        );\n\n        project.approvalVersion += 1;\n        project.totalApprovedAmount = 0;\n        project.spendingCause = _spendingCause;\n\n        emit SpendingCauseSet(_projectId, _spendingCause);\n    }\n\n    function approveSpending(\n        uint256 _projectId\n    ) public deactivateAfterDeadline(_projectId) {\n        Project storage project = projects[_projectId];\n\n        require(_projectId < projectCount, \"Invalid project ID\");\n        require(project.donationAmount[msg.sender] > 0, \"No donation made\");\n        require(\n            lastApprovalVersion[_projectId][msg.sender] !=\n                project.approvalVersion,\n            \"Already approved\"\n        );\n\n        lastApprovalVersion[_projectId][msg.sender] = project.approvalVersion;\n        project.totalApprovedAmount += project.donationAmount[msg.sender];\n\n        emit SpendingApproved(_projectId, project.totalApprovedAmount);\n    }\n\n    function spendDonations(\n        uint256 _projectId\n    ) public deactivateAfterDeadline(_projectId) {\n        Project storage project = projects[_projectId];\n\n        require(_projectId < projectCount, \"Invalid project ID\");\n        require(\n            project.spendingCause != address(0),\n            \"Spending cause address not set\"\n        );\n        require(\n            project.owner == msg.sender,\n            \"You can not initiate the spending\"\n        );\n        require(\n            MINIMUM_APPROVAL_RATIO * project.totalApprovedAmount >=\n                project.goal,\n            \"Insufficient approved funds\"\n        );\n\n        project.spendingCause.transfer(project.fundsRaised);\n\n        emit FundsSpent(_projectId, project.spendingCause, project.fundsRaised);\n\n        project.fundsRaised = 0;\n        project.totalApprovedAmount = 0;\n        project.active = false;\n    }\n\n    function checkAndRefundIfDeadlinePassed(uint256 _projectId) public {\n        Project storage project = projects[_projectId];\n\n        if (block.timestamp > project.deadline) {\n            refundDonations(_projectId);\n        }\n    }\n\n    function refundDonations(uint256 _projectId) internal {\n        Project storage project = projects[_projectId];\n\n        uint256 donation = project.donationAmount[msg.sender];\n        require(donation > 0, \"No donations to refund\");\n\n        payable(msg.sender).transfer(donation);\n\n        project.donationAmount[msg.sender] = 0;\n    }\n\n    modifier deactivateAfterDeadline(uint256 _projectId) {\n        Project storage project = projects[_projectId];\n        require(project.active, \"Project is not active\");\n        if (block.timestamp >= project.deadline) {\n            project.active = false;\n            revert(\"Project is no longer active due to passed deadline.\");\n        }\n        _;\n    }\n}\n",
  "sourcePath": "/Users/lucafischer/Documents/projects/DACO/daco_be/contracts/Daco.sol",
  "compiler": {
    "name": "solc",
    "version": "0.8.19+commit.7dd6d404.Emscripten.clang"
  },
  "schemaVersion": "3.4.16",
  "updatedAt": "2024-09-09T08:51:11.926Z",
  "networkType": "ethereum",
  "devdoc": {
    "kind": "dev",
    "methods": {},
    "version": 1
  },
  "userdoc": {
    "kind": "user",
    "methods": {},
    "version": 1
  }
}